:020000041000EA
:1010000020050020191000100000000099100010A9
:1010100000040100000000801149124A124B00F048
:1010200018F8124880471249124A134B00F011F881
:101030001249134A134B00F00CF81349134A0020CD
:10104000521A02DD043A8850FCDC114880471148EE
:1010500080479B1A03DD043BC858D050FBDC704727
:10106000142D00100C0000201C0100209D10001009
:10107000242E001020050020D8050020DC2E0010B2
:10108000D8050020D8050020D80500200006002043
:10109000012C00103D290010FEE7000080B500AFD4
:1010A00001F0ACFB01F0F0FBBD4680BD80B500AFA8
:1010B000124B1A68FF231B0213401A0A104B1A60C6
:1010C0000E4B1B68FF221A400E4B1A600C4B1B681C
:1010D000002B0ED00A4B1B681A020A4B1B68D31850
:1010E0000948191C01F0FAFC031C5A00074B1A604E
:1010F00002E0064B064A1A60BD4680BD000301406F
:10110000D8050020DC050020000024F4FC3F00206E
:101110000048E80190B585B000AFF8607A600B2315
:10112000FB180A1C1A700B23FB181B789B08DBB2F8
:10113000181C0B23FB181B789B08DBB21A1CFB68DE
:1011400004329200D3580B22BA18127803210A40B5
:10115000D200111CF8228A40D2431A40111CFB68AD
:10116000021D9200D150FB685B6F0B22BA181278F7
:101170005200111C03228A40D2431A40FB685A676E
:101180000B23FB181B78DB08DBB2181C0B23FB18A6
:101190001B78DB08DBB21A1CFB6810329200D358B4
:1011A0000B22BA18127807210A409200111C04225F
:1011B0008A40D2431A40111CFB68021C1032920074
:1011C000D1500B23FB181B78DB08DBB2181C0B2358
:1011D000FB181B78DB08DBB21A1CFB68103292008C
:1011E000D2587B685B781C1C0B23FB181B780721EB
:1011F0000B409B009C40231C1A43111CFB68021CE3
:1012000010329200D150FB681D4A93420BD1FB680B
:101210001B6E0B22BA181278012191400A1CD2438E
:101220001A40FB681A667B685A680B23FB181B7808
:101230009A40FB685A600B23FB181B789B08DBB2B3
:10124000181C0B23FB181B789B08DBB21A1CFB68CD
:1012500004329200D2587B681B781C1C0B23FB18AD
:101260001B7803210B40DB009C40231C1A43111CFC
:10127000FB68021D9200D150BD4605B090BDC0462E
:101280000002044080B500AF024BC3225A62BD4643
:1012900080BDC0460000014080B500AF054BC022B4
:1012A0005A62C046034B5B6A04221340FAD1BD4622
:1012B00080BDC0460000014080B582B000AF7860BC
:1012C000FFF7EAFF0C4A0C4B1B680C4919407B687E
:1012D0009B6819437B685B680B431360FFF7D2FF81
:1012E0007B685B781A1C7B681B78101C191C00F04B
:1012F00025F8BD4602B080BD00030140FFFFF0FFAE
:1013000080B582B000AF021CBB1D1A80FFF7C4FF7E
:10131000094B094A1169BA1D12880A431A61C0466D
:10132000054B1A688023DB051340F9D1FFF7AAFFAC
:10133000BD4602B080BDC0460003014080B584B008
:1013400000AF78603960FFF7A7FF214B1A68FF23D1
:101350001B0213401B0AFB601D4B1D4A12681D49EE
:1013600011403A680A431C490A431A60C046184BA8
:101370001A688023DB051340F9D1FA687B689A422A
:1013800006D8FA687B68101C191C00F053F805E0B9
:10139000FA687B68101C191C00F022F80C4B0C4AF0
:1013A00012680E4911407A6812020A430A490A4338
:1013B0001A60C046064B1A688023DB051340F9D13A
:1013C000FFF760FFFFF772FEBD4604B080BDC04668
:1013D0000003014000FF0FC00000F03FFF000FC0FE
:1013E00080B582B000AF7860396014E07B689B08FC
:1013F0007B600D4B0C4A12680C4911407A6812024E
:101400000A430B490A431A60C046074B1A688023F7
:10141000DB051340F9D13B689A007B689A42E5D31B
:10142000BD4602B080BDC04600030140FF000FC0B2
:101430000000F03F80B582B000AF7860396019E0FD
:101440007B68002B01D101237B607B689B007B6064
:101450000C4B0C4A12680C4911407A6812020A437C
:101460000A490A431A60C046064B1A688023DB0506
:101470001340F9D17B689A003B689A42E0D3BD469D
:1014800002B080BD00030140FF000FC00000F03F2C
:1014900080B500AF024B1B68181CBD4680BDC0461E
:1014A000FC3F002080B582B000AF78607B68DB68CD
:1014B000802252001A437B68DA60BD4602B080BDCC
:1014C00080B582B000AF78607B68054A934200D057
:1014D00003E00420FFF714FFC046BD4602B080BD04
:1014E0000000044880B582B000AF78607B68181CAB
:1014F000FFF7E6FFBD4602B080BDC04680B584B0B0
:1015000000AF78600A1CFB1C1A707B68181CFFF780
:10151000E9FF7B68181CFFF7C5FF7B681B68FB6051
:10152000FB68074A1340FB60FB1C1B789B03FA68AF
:101530001343FB607B68FA681A60BD4604B080BD47
:10154000FF3FFFFF80B582B000AF786039603B6835
:101550001A687B685A613B685B799B06DB0FDBB2DC
:101560001A057B685A603B681B791B071B0FDBB2AF
:101570001A1C7B685A623B685B791B071B0FDBB246
:101580001A1C7B681A623B685B79DB06DB0FDBB2F7
:101590001A1C7B689A613B681B791B061B0FDBB228
:1015A0001A1C7B68DA62BD4602B080BD80B586B089
:1015B00000AF7860081C111CFB1C021C1A70BB1CBD
:1015C0000A1C1A707B68A8229B58FB60FB1C1B78C6
:1015D000092B1AD89A001A4BD3181B689F4603236D
:1015E0003B6100237B6116E00C233B6102237B619E
:1015F00011E0C0239B003B6108237B610BE0C0230B
:101600001B013B610A237B6105E0C0239B013B6119
:101610000C237B61C0463B69DA43FB681340FB60E7
:10162000BB1C1A787B699A40131CFA681343FB6051
:101630007B68A821FA685A50BD4606B080BDC046F6
:101640004C2C001080B582B000AF78607B689B6B3B
:10165000DBB27F229343DBB2181CBD4602B080BDD3
:1016600080B582B000AF786039607B683A68DA6430
:10167000BD4602B080BDC04680B584B000AF786082
:1016800039601023FB607B68181C00F09DF83B68F4
:10169000DB79002B02D03B68DB79FB603B681A6882
:1016A0007968FB68081C111C1A1C00F0B5F83B682F
:1016B0009B79013B5A00FB685B0801331B02134313
:1016C000194A1A437B68DA633B681B79013B1B06A6
:1016D000812252001A437B685A633B685B79002B76
:1016E00009D07B685A6B3B685B79013B1B041A434A
:1016F0007B685A6308E07B685A6B3B681B79013B47
:101700001B041A437B685A637B68A022D2009A6349
:101710007B6801225242DA643B681B891A1C7B6891
:101720001A64BD4604B080BD0100030080B582B0DC
:1017300000AF78600A1CBB1C1A807A6884235B00A7
:10174000D258E023DB04134014D1C0467B68181C38
:10175000FFF778FF031E802BF8D07A6880239B0167
:10176000101C191CFFF77CFFBB1C1A887B688021AA
:101770005A5005E0BB1C19887A68C0235B00D15021
:10178000BD4602B080BDC04680B584B000AF786071
:101790007A6886235B00D258E023DB04134005D12E
:1017A0007B685A6D0E23FB181A8006E07A688E2338
:1017B0005B00D2580E23FB181A800E23FB181B88DF
:1017C000181CBD4604B080BD80B582B000AF786003
:1017D0007A689023DB059A4203D07B680C4A9342D7
:1017E00003D10C4B181C00F083F97B680322DA60EC
:1017F000C0467B68DB6801221340FAD07B681B6C13
:101800000F2293431A1C7B681A64BD4602B080BD48
:10181000000200480800004880B58EB000AFF860B4
:10182000B9607A60BB68632B5CD97B68002B59D0A8
:10183000FFF72EFE031C181C642101F04FF9031C56
:101840003B62BB68181C642101F048F9031CBB60B3
:101850000123FB620123BB62284B7B62274B3B6366
:1018600024E03B6A3A6B5A43111CBB687A685343C5
:10187000081C191C01F032F9031CFB61FB699B0A6F
:10188000BB61FB699B059B0D7B61BB691B4A934256
:1018900009D87A697B6A9A4205D27B697B62BB6907
:1018A000BB623B6BFB623B6B013B3B633B6B002BC7
:1018B000D7D1FB6A802212021A43FB681A61FB68C7
:1018C0005B690F4A1A407B68013B9B021A43BB6A63
:1018D000013B1B041A43FB685A613723FB180022A3
:1018E0001A7003E03723FB1801221A703723FB1804
:1018F0001B78181CBD460EB080BDC046FF0300001B
:10190000EF8000FC80B584B000AFF860B9603B6048
:10191000FB1D1A70FA6884235B00D3580E4A1340EB
:10192000191CFA6884235B00D150FA6884235B0099
:10193000D3580A4A1A403B681902BB681943FB1D79
:101940001B781B060B431A43111CFA6884235B00A7
:10195000D150BD4604B080BDFFFFFFF8C0C0FFF806
:1019600080B584B000AFF860B9603B60FB1D1A70B1
:10197000FA6886235B00D358104A1340191CFA6892
:1019800086235B00D150FA6886235B00D3580C4A4B
:101990001A403B681902BB681943FB1D1B781B06E4
:1019A0000B431343802252051A43111CFA68862305
:1019B0005B00D150BD4604B080BDC046FFFFFFF8BC
:1019C000C0C0FFEF80B584B000AFF8607A600B2331
:1019D000FB180A1C1A70FA6886235B00D3580E4A5B
:1019E0001340191CFA6886235B00D150FA688623DD
:1019F0005B00D358094A1A407B681B021A430B2329
:101A0000FB181B781B061A43111CFA6886235B001F
:101A1000D150BD4604B080BDFFFFFFF8FFC0FFFFFF
:101A200080B584B000AFF8607A600B23FB180A1C05
:101A30001A70FB689B690B22BA1812780721914033
:101A40000A1CD2431A400B23FB181B787968994073
:101A50000B1C1A43FB689A61BD4604B080BDC046AA
:101A600080B584B000AFF8607A600B23FB180A1CC5
:101A70001A70FA6884235B00D3580B22BA181278C4
:101A8000072191400A1CD2431A400B23FB181B78F4
:101A9000796899400B1C1A43111CFA6884235B0077
:101AA000D150BD4604B080BD80B584B000AFF860B1
:101AB0007A600B23FB180A1C1A70FA6886235B00F5
:101AC000D3580B22BA181278072191400A1CD2432E
:101AD0001A400B23FB181B78796899400B1C1A439A
:101AE000111CFA6886235B00D150BD4604B080BD4E
:101AF00080B582B000AF78607B68044A934202D11F
:101B00000820FFF7FDFBBD4602B080BD080000487D
:101B100080B500AFBD4680BD80B582B000AF7860B3
:101B200039607B681A6C3B681A437B681A64BD464F
:101B300002B080BD80B582B000AF786039607B684C
:101B40001B6C3A68D2431A407B681A64BD4602B0E7
:101B500080BDC04680B582B000AF78607B689B6B6B
:101B6000DBB27F229343DBB2181CBD4602B080BDBE
:101B700080B582B000AF786039603B688022520245
:101B80009A407B689A66BD4602B080BD80B582B03F
:101B900000AF786039607A6884235B00D2583B6874
:101BA0001A43111C7A6884235B00D150BD4602B0F1
:101BB00080BDC04680B582B000AF786039607A6879
:101BC00084235B00D3583A68D2431A40111C7A68C8
:101BD00084235B00D150BD4602B080BD80B582B089
:101BE00000AF78607A688C235B0080210902D150B5
:101BF000BD4602B080BDC04680B582B000AF7860FF
:101C00007A688A235B00D25880235B0113405A1EF6
:101C10009341DBB2181CBD4602B080BD80B582B0D6
:101C200000AF78607A688A235B00D25880231B015A
:101C300013405A1E9341DBB2181CBD4602B080BD52
:101C400080B582B000AF786039607A6886235B0027
:101C5000D2583B681A43111C7A6886235B00D15026
:101C6000BD4602B080BDC04680B582B000AF78608E
:101C700039607A6886235B00D3583A68D2431A40A9
:101C8000111C7A6886235B00D150BD4602B080BD2E
:101C900080B582B000AF78607A688C235B008021C9
:101CA000C901D150BD4602B080BDC04680B582B0EA
:101CB00000AF78607A688A235B00D358082213400B
:101CC0005A1E9341DBB2181CBD4602B080BDC0460F
:101CD00090B585B000AF78600F23FB1800221A7012
:101CE0007B685B685B680F22BC189847031C2370F5
:101CF0000F23FB181B78181CBD4605B090BDC046CD
:101D000090B587B000AFF860B9607A601723FB1810
:101D100004221A70FB685B6829229B5C002B00D0B0
:101D20000CE01723FC18F968BA687B68081C111CC2
:101D30001A1C00F031F8031C2370C0461723FB184F
:101D40001B78181CBD4607B090BDC04690B587B043
:101D500000AFF860B9607A601723FB1804221A708C
:101D6000FB685B682A229B5C002B00D00CE01723E9
:101D7000FC18F968BA687B68081C111C1A1C00F072
:101D800073F8031C2370C0461723FB181B78181C1C
:101D9000BD4607B090BDC04680B586B000AFF860C4
:101DA000B9607A601723FB1804221A70FB689B68DD
:101DB0003B61FB685B6829229B5C002B4CD117239D
:101DC000FB1802221A703B691B7EDBB201225340D2
:101DD000DBB2002B40D0BB68002B39D07B68002BD6
:101DE00036D03B69BA681A603B697A689A603B6989
:101DF0000022DA603B6901221A76FB685B682B22BD
:101E00009B5C002B0DD0FB681B68181CFFF7E6FEDF
:101E1000FB681A688023DB05101C191CFFF7B6FE4F
:101E200007E0FB681A6880239B01101C191CFFF750
:101E300073FE1723FB1800221A70FB681968FB68F1
:101E40005B682D229B5C081C191CFFF791FE03E0C8
:101E50001723FB1803221A701723FB181B78181C72
:101E6000BD4606B080BDC04680B586B000AFF86004
:101E7000B9607A601723FB1804221A70FB689B680C
:101E80003B61FB685B682A229B5C002B48D11723CF
:101E9000FB1802221A703B695B7EDBB201225340C1
:101EA000DBB2002B3CD0BB68002B35D07B68002B0D
:101EB00032D03B69BA685A603B697A681A613B69FB
:101EC00001225A763B6900225A61FB685B682C222A
:101ED0009B5C002B13D0FB681B68181CFFF7D8FE17
:101EE000FA687B68101C191C00F03EF9FB681A6840
:101EF000C023DB05101C191CFFF7A2FE07E0FB68DE
:101F00001A68C0231B02101C191CFFF705FE1723BB
:101F1000FB1800221A7003E01723FB1803221A7023
:101F20001723FB181B78181CBD4606B080BDC046A1
:101F300080B584B000AF78607B689B68FB60FB680D
:101F4000DA68FB689B689A4241D27B685B682B2207
:101F50009B5C002B28D01AE0FB68DA68FB689B6862
:101F60009A4212D27B681968FB681A68FB68DB68C2
:101F7000D3181B789BB2081C191CFFF7D7FBFB6812
:101F8000DB685A1CFB68DA6001E0C04655E07B68FC
:101F90001B68181CFFF730FE031C1A1C012353405A
:101FA000DBB2002BD8D148E07B681968FB681A685F
:101FB000FB68DB68D3181B789BB2081C191CFFF761
:101FC000B5FBFB68DB685A1CFB68DA6035E07B68B0
:101FD0001B68181CFFF722FE031E2ED07B685B686F
:101FE0002B229B5C002B08D07B681A688023DB05C2
:101FF000101C191CFFF7DEFD07E07B681A688023C0
:102000009B01101C191CFFF795FDC0467B681B68DF
:10201000181CFFF79FFD031E802BF7D0FB680022E2
:102020001A76FB6800221A607B685B689B68002B4D
:1020300003D07B685B689B689847BD4604B080BD51
:1020400090B585B000AF78607B689B68FB607B686B
:102050005B682C229B5C002B51D033E0FB685A69F3
:10206000FB681B699A4211D2FB685A68FB685B697E
:10207000D4187B681B68181CFFF786FB031CDBB2B7
:102080002370FB685B695A1CFB685A61FB685A69DC
:10209000FB681B699A4215D1FB6800225A767B685F
:1020A0001A68C023DB05101C191CFFF7DDFD7B68D7
:1020B0005B68DB68002B04D07B685B68DB68984753
:1020C0000CE00BE07B681B68181CFFF7EFFD031C9E
:1020D0001A1C01235340DBB2002BBFD1FB685A69A5
:1020E000FB681B699A423CD2FB681A69FB685B6912
:1020F000D31A7A68101C191C00F036F831E0FB681E
:102100005A69FB681B699A4211D2FB685A68FB68DE
:102110005B69D4187B681B68181CFFF735FB031C30
:10212000DBB22370FB685B695A1CFB685A61FB6871
:102130005A69FB681B699A4213D1FB6800225A76E0
:102140007B681A68C0231B02101C191CFFF7F2FCE5
:102150007B685B68DB68002B03D07B685B68DB68AF
:102160009847BD4605B090BD80B584B000AF78609B
:1021700039600023FB607B685B682C229B5C1A1C27
:1021800001239340BB603A68BB689A4203D23B6824
:10219000013BFB6002E0BB68013BFB607B681968A8
:1021A0007B685B682C229A5CFB68081C111C1A1C5B
:1021B000FFF708FCBD4604B080BDC04680B582B0C4
:1021C00000AF021CFB1D1A70064BFA1D1278111C81
:1021D0001F220A40012191400A1C1A60BD4602B02C
:1021E00080BDC04600E100E0B0B582B000AF021C87
:1021F0003960FB1D1A70FB1D1B787F2B2FD92D4CCE
:10220000FB1D1B781A1C0F231340083B9908294A11
:10221000FB1D1B78181C0F230340083B9B0806334B
:102220009B00D3185B68FA1D1278101C0322024031
:10223000D200101CFF228240D2431A403B689B010F
:10224000FF200340F81D0078051C03202840C00033
:1022500083401A438B1D9B00E3185A6026E0164CFE
:10226000FB1D1B785BB29B081349FA1D127852B212
:102270009208C03292005258F91D0978081C0321B7
:102280000140C900081CFF218140C94311403A6840
:102290009201FF200240F81D0078051C0320284011
:1022A000C00082400A43C0339B001A51BD4602B0B1
:1022B000B0BDC04600ED00E000E100E080B582B0B6
:1022C00000AF7860081C111CFB1C021C1A70BB1CA0
:1022D0000A1C1A70FB1C1878FB1C1B787A680633E2
:1022E0009B00D3185B68072293431A1CBB1C1B7806
:1022F0001A437968831D9B00CB185A60BD4602B013
:1023000080BDC04680B582B000AF78607B681B6C32
:102310000F22934302221A437B681A64BD4602B01F
:1023200080BDC04680B582B000AFFB1D00221A7090
:10233000374A384B101C02211A1CFEF7EBFE902383
:10234000DA05354B101C191CFFF796F99023DB05B5
:10235000181C00210622FFF7B1FF9023DB05181C93
:1023600003210022FFF7AAFF9023DB05181C05219B
:102370000022FFF7A3FF9023DB05181C1021042285
:102380000123FFF7BFFA9023DB05181C002104226C
:102390000023FFF7E5FA9023DB05181CFFF7B2FFD7
:1023A0001B4A1E4B101C01211A1CFEF7B3FE902382
:1023B000DB05181C10210022FFF732FB9023DB0500
:1023C000181C10210222FFF74BFB9023DB05181C81
:1023D00010210122FFF768FB9023DB05181C132155
:1023E0000122FFF761FB0B200321FFF7FDFE0B200D
:1023F000FFF7E4FE0A200321FFF7F6FE0A20FFF7AD
:10240000DDFEFB1D1B78181CBD4602B080BDC0461A
:1024100000020440C42C0010742C0010802C00100A
:1024200080B500AF024B181CFFF782FDBD4680BD92
:102430002005002080B500AF024B181CFFF700FEFE
:10244000BD4680BD2005002080B582B000AF786019
:102450000A1CFB1C1A707B68DA68FB1C1B780121C4
:1024600099400B1C1A437B68DA60BD4602B080BD00
:1024700080B582B000AF78607B680122DA60BD462B
:1024800002B080BD80B582B000AF78600A1CBB1C72
:102490001A80BB1C1A887B685A63BD4602B080BD97
:1024A00080B582B000AF78600A1CBB1C1A80BB1CD0
:1024B0001A887B68DA63BD4602B080BD80B582B001
:1024C00000AF786039607B683A681A61BD4602B037
:1024D00080BDC04680B582B000AF78600A1CFB1C8E
:1024E0001A707B68A4229A58FB1C1B780121994022
:1024F0000B1C1A437B68A4215A50BD4602B080BD14
:1025000090B585B000AF78600F23FB1801221A70D8
:102510007B6829229B5C022B55D17B681B680F22AC
:10252000BC18181C00F04AF9031C23700F23FB1879
:102530001B78002B43D17B689A687B68DB68101C92
:10254000191CFEF7FFFF7B689A687B68DB699BB20A
:10255000101C191CFFF796FF7B689A687B689B69C3
:102560009BB2101C191CFFF79BFF7B685A687B68A5
:102570005B6A101C191CFFF7A1FF7B68181C00F098
:1025800029F87B6819697B682C229A5C7B685B69F7
:10259000081C111C1A1CFEF7BDFD7B6829220021B6
:1025A00099547B682F229B5C002B03D07B68181CFE
:1025B00000F0C6F80F23FB1800221A7003E07B68B6
:1025C0002922022199540F23FB181B78181CBD46A1
:1025D00005B090BD80B582B000AF78607B683022D6
:1025E0009B5C002B0FD07B689B68181C0021FFF7B9
:1025F00071FF7B6899687B682A229B5C081C00211C
:102600001A1CFEF7D3FF7B6831229B5C002B0FD096
:102610007B689B68181C0221FFF75CFF7B68996848
:102620007B682B229B5C081C02211A1CFEF7BEFF54
:10263000BD4602B080BDC04680B582B000AF7860B4
:102640007B6829229B5C002B04D07B6829229B5C41
:10265000042B11D17B6859687B682E229B5C081C77
:10266000191CFFF7F1FE7B689B68181CFFF700FF41
:102670007B68292203219954BD4602B080BDC04623
:1026800080B586B000AF786039601723FB1801224F
:102690001A707B6829229B5C022B2CD03B68194A5C
:1026A000934228D87B68DB6901333B613B68154A5C
:1026B000D31A3A695343181C124900F00FFA031C4D
:1026C000FB607B68FA689A617B683A681A627B688B
:1026D0009A68FB689BB2101C191CFFF7E1FE7B682F
:1026E0005A687B685B6A101C191CFFF7E7FE17230A
:1026F000FB1800221A701723FB181B78181CBD4604
:1027000006B080BD1027000090B585B000AF78609E
:102710000F23FB1801221A707B6828229B5C002B78
:1027200007D10F23FC187B68181CFFF7E9FE031C78
:1027300023700F23FB181B78181CBD4605B090BDF5
:1027400080B582B000AF78607B6828229B5C002B4C
:1027500003D17B68181CFFF76FFFBD4602B080BD38
:1027600090B585B000AF786039600F23FB18012267
:102770001A707B6828229B5C002B09D10F23FC1860
:102780007A683B68101C191CFFF77AFF031C237042
:102790000F23FB181B78181CBD4605B090BDC04622
:1027A00080B582B000AF78607B68DB688022520021
:1027B0001A437B68DA60BD4602B080BD80B582B046
:1027C00000AF78607B685B7B01225340DBB2002B5B
:1027D0000FD07B689A687B681B7B101C191CFEF766
:1027E0008DFE7B689B68181CFFF7DAFF7B6801226F
:1027F0005A730023181CBD4602B080BD80B500AFDF
:10280000BD4680BD80B584B000AF78600F23FB1853
:1028100000221A700E23FB1800221A700D23FB18D9
:1028200000221A700C23FB1800221A700B23FB18CD
:1028300000221A707B681B7801225340DBB2002B08
:102840001BD00E23FA180D23FB1812781B781343A4
:10285000DAB20C23FB181B781343D9B20F23FB18F1
:102860000B22BA1812780A431A700F23FB181B7830
:10287000002B02D17B6801221A700F23FB181B78F2
:10288000181CBD4604B080BD90B585B000AF3B1D9F
:10289000044A13CA13C33B1D181CFEF70DFDBD46A9
:1028A00005B090BDFC2C001090B583B000AFFB1DAF
:1028B00000221A70FC1D1C4B181CFFF7A3FF031C01
:1028C0002370FB1D1B78002B06D1FC1D174B181C19
:1028D000FFF71AFF031C2370FB1D1B78002B06D18A
:1028E000FC1D134B181CFFF70FFF031C2370FB1D6F
:1028F0001B78002B06D1FC1D0E4B181CFFF704FFA4
:10290000031C2370FB1D1B78002B06D1FC1D0A4BFA
:10291000181CFFF7DDF9031C2370FB1D1B78181C26
:10292000BD4603B090BDC046FC0500202C0500202C
:1029300060050020940500202005002090B587B098
:1029400000AF3B1D484A03CA03C31188198092781F
:102950009A701723FC18FFF7A7FF031C2370172397
:10296000FB181B78002B00D0FEE7404B181C002101
:10297000FFF7F6FE3E4B181C0021FFF7F1FE3D4B22
:10298000181C0021FFF7ECFE1623FC183A4B181C0C
:10299000FFF79EF9031C23701623FB181B78002BEE
:1029A00060D1354A3B1D101C191C0A22FFF7A8F9FB
:1029B000314A1023FB18101C191C0122FFF7C6F91D
:1029C000031E4ED11023FB181B78012B05D12B4B76
:1029D000181C0021002200F053F81023FB181B786C
:1029E000022B05D1254B0020191C002200F048F8CD
:1029F0001023FB181B78032B05D1204B002000214E
:102A00001A1C00F03DF81023FB181B78042B06D18C
:102A10001A4A1A4B101C00211A1C00F031F810231E
:102A2000FB181B78052B06D1144A144B0020111CEF
:102A30001A1C00F025F81023FB181B78062B06D172
:102A40000E4A0E4B101C191C002200F019F810231E
:102A5000FB181B78072B04D100200021002200F076
:102A60000FF8A5E7FEE7C046082D001094050020EA
:102A7000600500202C050020200500201027000004
:102A800090B583B000AF041C081C111CBB1D221C98
:102A90001A803B1D021C1A80BB1C0A1C1A80BB1D1D
:102AA0001B880B4A101C191CFFF75AFE3B1D1B8884
:102AB000084A101C191CFFF753FEBB1C1B88064A52
:102AC000101C191CFFF74CFEBD4603B090BDC0465C
:102AD00094050020600500202C05002000224308FA
:102AE0008B4274D303098B425FD3030A8B4244D3D6
:102AF000030B8B4228D3030C8B420DD3FF22090218
:102B000012BA030C8B4202D31212090265D0030BD6
:102B10008B4219D300E0090AC30B8B4201D3CB03CC
:102B2000C01A5241830B8B4201D38B03C01A52410E
:102B3000430B8B4201D34B03C01A5241030B8B4210
:102B400001D30B03C01A5241C30A8B4201D3CB02FB
:102B5000C01A5241830A8B4201D38B02C01A5241E0
:102B6000430A8B4201D34B02C01A5241030A8B42E3
:102B700001D30B02C01A5241CDD2C3098B4201D3FB
:102B8000CB01C01A524183098B4201D38B01C01A79
:102B9000524143098B4201D34B01C01A52410309F0
:102BA0008B4201D30B01C01A5241C3088B4201D39F
:102BB000CB00C01A524183088B4201D38B00C01A4C
:102BC000524143088B4201D34B00C01A5241411A73
:102BD00000D20146524110467047FFE701B5002080
:102BE00000F00CF802BDC0460029F7D003B5FFF78E
:102BF00075FF0EBC4243891A1847C0467047C0464D
:102C00000E4B70B500251E1C0D4CE41AA410A542F5
:102C100004D0AB00F35898470135F8E7FEF778FF8A
:102C2000084B00251E1C084CE41AA410A54204D031
:102C3000AB00F35898470135F8E770BDD805002080
:102C4000D8050020D8050020D8050020DE1500108A
:102C5000DE150010E8150010E81500100A16001027
:102C60000A1600100A1600100A160010F2150010BD
:102C7000FE150010004B00000808011000000000C5
:102C8000B00000000100000000020440010000004C
:102C9000802C0010742C0010252300100000000070
:102CA0000000000000000000000000000000000024
:102CB0000000000000000000882C0010000000044C
:102CC00004020000000000000100000000000000FD
:102CD000040000009000000000000100000000005F
:102CE000040000009000000000000100000000004F
:102CF000040000009000000000000100000100003E
:102D0000000001000000000052756E6E696E672EB3
:042D10002E2E000063
:102D14002C4887460000000000000000000000006E
:102D2400000000000000000000000000000000009F
:102D3400254887460000000000000000234887461D
:102D4400234887462348874623488746234887469F
:102D5400234887462348874623488746234887468F
:102D640000000000000000002148874621488746F3
:102D74002148874621488746214887462148874677
:102D840021488746214887460000000000000000D3
:102D940000000000000000001D4887461D488746CB
:102DA4001D4887461D4887460000000000000000BB
:102DB400000000000000000000000000000000000F
:102DC40000000000991000109910001099100010D4
:102DD400991000109910001099100010991000100B
:102DE40099100010991000109910001099100010FB
:102DF400991000103524001021240010991000109F
:102E040099100010991000109910001099100010DA
:102E140099100010991000109910001099100010CA
:102E240000000048942C0010E0050020C805002094
:102E34000000044800030448CC2C001000020440A5
:102E4400D42C0010409C00003F9C000000000000B7
:102E540000050000000200000A000201000000005A
:102E6400C80500200000044800040448DC2C0010BD
:102E740000020440E42C0010409C00003F9C000031
:102E84000000000000500000000200000B000301DD
:102E940000000000C80500200000044800010448A8
:102EA400EC2C001000020440F42C00100000000080
:102EB4003F9C0000102700000500000000020000F5
:102EC40000000001000000000090D0030100000099
:082ED4000000044800000000AA
:0400000510001019BE
:00000001FF
